:020000021000EC
:10000000F8FF0510A1530200F5530200B5010100ED
:10001000BB010100C1010100C70101000000000097
:1000200000000000000000000000000019020100B4
:10003000F753020000000000B1020100C1020100FC
:10004000F7530200F7530200F7530200F753020080
:10005000F7530200F7530200F7530200F753020070
:10006000F7530200F7530200F7530200F753020060
:1000700079250100E14D02005D4E0200955302001A
:100080009B530200F7530200F7530200F75302009C
:10009000F7530200F7530200F7530200F753020030
:1000A000F7530200F7530200F7530200F753020020
:1000B000F7530200F7530200F7530200F753020010
:1000C0000000000000000000000000000000000030
:1000D0000000000000000000000000000000000020
:1000E0000000000000000000000000000000000010
:1000F0000000000000000000000000000000000000
:1001000010B5054C237833B9044B13B10448AFF351
:1001100000800123237010BD000F001000000000BC
:10012000B0D5020008B5034B1BB103490348AFF338
:10013000008008BD00000000040F0010B0D50200D0
:10014000154B002B08BF134B9D46A3F5803A0021A9
:100150008B460F461348144A121A18F05DFB0F4BDA
:10016000002B00D098470E4B002B00D09847002062
:10017000002104000D000D48002802D00C4812F0A8
:1001800079FC18F091FA2000290013F0EFF812F032
:100190006BFE00BF00000800F8FF05100000000023
:1001A000C9320200000F0010886D0010752A02008D
:1001B00000000000102300F007B8202300F004B86E
:1001C000302300F001B840239C46F0B404AE7546DD
:1001D000E80801D3EFF309860E4F0FCE0FC70FBC0F
:1001E0000FC74046494652465B460FC71DCE3100F9
:1001F000A60A00D304316E0900D248311FC7EFF3BD
:1002000009806946EFF3148663C76046014912F01E
:1002100017F900BFF85A00101EF0040F0CBFEFF3DF
:100220000880EFF30980816911F8021C91BB01B5C8
:1002300090E80F10E047BDE800508CE80300244B25
:1002400093E80600914208BF704741B91EF0100FB5
:1002500010D12049086820F0010008600AE02CE96C
:10026000F00F1EF0100F08BF2CED108AC1F838C037
:1002700081F822E01A6092F82210906B61F0FF0E74
:100280001EF0100F08BFB0EC108AB0E8F00F80F33A
:1002900009887047104A13689942FAD801B552F894
:1002A00021C00FC8E047BDE80050CCF800007047FF
:1002B00001B513F0EBFFBDE80140EFF3098CBEE799
:1002C00001B513F0ABFFBDE80140EFF3098CB6E7D1
:1002D0004804001034EF00E068AE020081F00041F5
:1002E00002E000BF83F0004330B54FEA41044FEA1B
:1002F000430594EA050F08BF90EA020F1FBF54EAB6
:10030000000C55EA020C7FEA645C7FEA655C00F051
:10031000E2804FEA5454D4EB5555B8BF6D420CDD22
:100320002C4480EA020281EA030382EA000083EAA5
:10033000010180EA020281EA0303362D88BF30BD45
:1003400011F0004F4FEA01314FF4801C4CEA11319B
:1003500002D0404261EB410113F0004F4FEA0333FA
:100360004CEA133302D0524263EB430394EA050F85
:1003700000F0A780A4F10104D5F1200E0DDB02FAF4
:100380000EFC22FA05F2801841F1000103FA0EF288
:10039000801843FA05F359410EE0A5F120050EF14E
:1003A000200E012A03FA0EFC28BF4CF0020C43FA7F
:1003B00005F3C01851EBE37101F0004507D54FF08C
:1003C000000EDCF1000C7EEB00006EEB0101B1F5DC
:1003D000801F1BD3B1F5001F0CD349085FEA300022
:1003E0004FEA3C0C04F101044FEA445212F5800F2D
:1003F00080F09A80BCF1004F08BF5FEA500C50F1CA
:10040000000041EB045141EA050130BD5FEA4C0CAC
:10041000404141EB010111F4801FA4F10104E9D135
:1004200091F0000F04BF01460020B1FA81F308BF2C
:100430002033A3F10B03B3F120020CDA0C3208DDF8
:1004400002F1140CC2F10C0201FA0CF021FA02F1D3
:100450000CE002F11402D8BFC2F1200C01FA02F143
:1004600020FA0CFCDCBF41EA0C019040E41AA2BF68
:1004700001EB0451294330BD6FEA04041F3C1CDA30
:100480000C340EDC04F11404C4F1200220FA04F050
:1004900001FA02F340EA030021FA04F345EA0301FA
:1004A00030BDC4F10C04C4F1200220FA02F001FABC
:1004B00004F340EA0300294630BD21FA04F029463E
:1004C00030BD94F0000F83F4801306BF81F48011D7
:1004D0000134013D4EE77FEA645C18BF7FEA655C4A
:1004E00029D094EA050F08BF90EA020F05D054EA1C
:1004F000000C04BF1946104630BD91EA030F1EBF21
:100500000021002030BD5FEA545C05D14000494124
:1005100028BF41F0004130BD14F580043CBF01F517
:10052000801130BD01F0004545F0FE4141F47001FD
:100530004FF0000030BD7FEA645C1ABF19461046D8
:100540007FEA655C1CBF0B46024650EA013406BFD9
:1005500052EA033591EA030F41F4002130BD00BF98
:1005600090F0000F04BF0021704730B54FF4806455
:1005700004F132044FF000054FF0000150E700BFD6
:1005800090F0000F04BF0021704730B54FF4806435
:1005900004F1320410F0004548BF40424FF0000122
:1005A0003EE700BF42004FEAE2014FEA31014FEA65
:1005B00002701FBF12F07F4393F07F4F81F06051B4
:1005C000704732F07F4208BF704793F07F4F04BFFF
:1005D00041F40021704730B54FF4607401F00045DC
:1005E00021F000411CE700BF50EA010208BF70473C
:1005F00030B54FF000050AE050EA010208BF70472D
:1006000030B511F0004502D5404261EB41014FF495
:10061000806404F132045FEA915C3FF4D8AE4FF09D
:1006200003025FEADC0C18BF03325FEADC0C18BF80
:10063000033202EBDC02C2F1200300FA03FC20FAD1
:1006400002F001FA03FE40EA0E0021FA02F114441E
:10065000BDE600BF70B54FF0FF0C4CF4E06C1CEA37
:1006600011541DBF1CEA135594EA0C0F95EA0C0FA8
:1006700000F0DEF82C4481EA030621EA4C5123EA1B
:100680004C5350EA013518BF52EA033541F480114A
:1006900043F4801338D0A0FB02CE4FF00005E1FBFD
:1006A00002E506F00042E0FB03E54FF00006E1FB47
:1006B00003569CF0000F18BF4EF0010EA4F1FF048A
:1006C000B6F5007F64F5407404D25FEA4E0E6D41CA
:1006D00046EB060642EAC62141EA55514FEAC520DB
:1006E00040EA5E504FEACE2EB4F1FD0C88BFBCF557
:1006F000E06F1ED8BEF1004F08BF5FEA500E50F108
:10070000000041EB045170BD06F0004646EA0101CD
:1007100040EA020081EA0301B4EB5C04C2BFD4EBFF
:100720000C0541EA045170BD41F480114FF0000EF8
:10073000013C00F3AB8014F1360FDEBF002001F066
:10074000004170BDC4F10004203C35DA0C341BDCE0
:1007500004F11404C4F1200500FA05F320FA04F0B2
:1007600001FA05F240EA020001F0004221F00041E6
:1007700010EBD37021FA04F642EB06015EEA430E59
:1007800008BF20EAD37070BDC4F10C04C4F1200589
:1007900000FA04F320FA05F001FA04F240EA02003C
:1007A00001F0004110EBD37041F100015EEA430E0D
:1007B00008BF20EAD37070BDC4F1200500FA05F22D
:1007C0004EEA020E20FA04F301FA05F243EA0203AC
:1007D00021FA04F001F0004121FA04F220EA0200BB
:1007E00000EBD3705EEA430E08BF20EAD37070BD01
:1007F00094F0000F0FD101F00046400041EB0101E1
:1008000011F4801F08BF013CF7D041EA060195F0C2
:10081000000F18BF704703F00046520043EB03037C
:1008200013F4801F08BF013DF7D043EA0603704769
:1008300094EA0C0F0CEA135518BF95EA0C0F0CD074
:1008400050EA410618BF52EA4306D1D181EA0301BA
:1008500001F000414FF0000070BD50EA410606BFB4
:100860001046194652EA430619D094EA0C0F02D1F9
:1008700050EA013613D195EA0C0F05D152EA03363E
:100880001CBF104619460AD181EA030101F000415C
:1008900041F0FE4141F470014FF0000070BD41F0A5
:1008A000FE4141F4780170BD70B54FF0FF0C4CF47F
:1008B000E06C1CEA11541DBF1CEA135594EA0C0F9E
:1008C00095EA0C0F00F0A7F8A4EB050481EA030EEB
:1008D00052EA03354FEA013100F088804FEA0333D2
:1008E0004FF0805545EA131343EA12634FEA0222A0
:1008F00045EA111545EA10654FEA00260EF0004161
:100900009D4208BF964244F1FD0404F5407402D2B2
:100910005B084FEA3202B61A65EB03055B084FEA43
:1009200032024FF480104FF4002CB6EB020E75EB40
:10093000030E22BFB61A754640EA0C005B084FEA68
:100940003202B6EB020E75EB030E22BFB61A7546E5
:1009500040EA5C005B084FEA3202B6EB020E75EB30
:10096000030E22BFB61A754640EA9C005B084FEAA8
:100970003202B6EB020E75EB030E22BFB61A7546B5
:1009800040EADC0055EA060E18D04FEA051545EAA4
:1009900016754FEA06164FEAC30343EA52734FEA4D
:1009A000C2025FEA1C1CC0D111F4801F0BD141EAC6
:1009B00000014FF000004FF0004CB6E711F4801F2B
:1009C00004BF01430020B4F1FD0C88BFBCF5E06F0B
:1009D0003FF6AFAEB5EB030C04BFB6EB020C5FEA1B
:1009E000500C50F1000041EB045170BD0EF0004E70
:1009F0004EEA113114EB5C04C2BFD4EB0C0541EAA2
:100A0000045170BD41F480114FF0000E013C90E69E
:100A100045EA060E8DE60CEA135594EA0C0F08BF62
:100A200095EA0C0F3FF43BAF94EA0C0F0AD150EA61
:100A300001347FF434AF95EA0C0F7FF425AF1046F4
:100A400019462CE795EA0C0F06D152EA03353FF41C
:100A5000FDAE1046194622E750EA410618BF52EA99
:100A600043067FF4C5AE50EA41047FF40DAF52EA6D
:100A700043057FF4EBAE12E74FF0FF3C06E000BF0A
:100A80004FF0010C02E000BF4FF0010C4DF804CD17
:100A90004FEA410C7FEA6C5C4FEA430C18BF7FEAD7
:100AA0006C5C1BD001B050EA410C0CBF52EA430C05
:100AB00091EA030F02BF90EA020F0020704710F185
:100AC000000F91EA030F58BF994208BF90422CBF14
:100AD000D8176FEAE37040F0010070474FEA410C0D
:100AE0007FEA6C5C02D150EA013C07D14FEA430C2B
:100AF0007FEA6C5CD6D152EA033CD3D05DF8040B9C
:100B0000704700BF8446104662468C4619466346CD
:100B100000E000BF01B5FFF7B7FF002848BF10F1A4
:100B2000000F01BD4DF808EDFFF7F4FF0CBF0120E9
:100B300000205DF808FB00BF4DF808EDFFF7EAFF65
:100B400034BF012000205DF808FB00BF4DF808ED20
:100B5000FFF7E0FF94BF012000205DF808FB00BF15
:100B60004DF808EDFFF7CEFF94BF012000205DF89F
:100B700008FB00BF4DF808EDFFF7C4FF34BF0120AC
:100B800000205DF808FB00BF4FEA410C7FEA6C5C77
:100B900002D150EA013C0AD14FEA430C7FEA6C5C77
:100BA00002D152EA033C02D14FF0000070474FF0EF
:100BB000010070474A0011D212F5001211D20DD572
:100BC0006FF47873B3EB62520ED44FEAC12343F053
:100BD000004343EA505323FA02F070474FF00000FD
:100BE000704750EA013002D14FF0FF3070474FF0AC
:100BF0000000704753B94AB9002908BF00281CBF3C
:100C00004FF0FF314FF0FF3000F074B9ADF1080C38
:100C10006DE904CE00F006F8DDF804E0DDE902231A
:100C200004B070472DE9F047089E04468846002B23
:100C300040F085808A42154648D9B2FA82F24AB11C
:100C4000C2F1200701FA02F320FA07F7954047EABC
:100C5000030894404FEA154E230CB8FBFEF71FFA29
:100C600085FC0EFB178843EA084307FB0CF1994209
:100C700009D9EB1807F1FF3080F0E380994240F288
:100C8000E080023F2B445B1AA4B2B3FBFEF00EFBE4
:100C9000103344EA034400FB0CFCA44509D92C1989
:100CA00000F1FF3380F0CB80A44540F2C8800238C9
:100CB0002C4440EA0740A4EB0C0400271EB1D440AA
:100CC0000023C6E900433946BDE8F087002A53D027
:100CD000B2FA82F2002A40F0B680491B4FEA154E64
:100CE0001FFA85F80127B1FBFEFC230C0EFB1C113B
:100CF00043EA014308FB0CF1994207D9EB180CF1C8
:100D0000FF3002D2994200F2EC808446591AA3B215
:100D1000B1FBFEF00EFB101443EA044408FB00F89C
:100D2000A04507D92C1900F1FF3302D2A04500F2EB
:100D3000DC801846A4EB080440EA0C40BEE78B4276
:100D400008D9002E78D00027C6E900013846394678
:100D5000BDE8F087B3FA83F77FB98B4202D38242B2
:100D600000F2BD80841A61EB030301209846002E37
:100D7000A9D0C6E90048A6E7FFDEC7F12005BB40C1
:100D800022FA05FC4CEA030C01FA07F420FA05F8F4
:100D900021FA05F34FEA1C4E48EA0404B3FBFEF9BE
:100DA000210C0EFB19331FFA8CF841EA034309FBAF
:100DB00008FA9A4502FA07F200FA07F10BD91CEB80
:100DC000030309F1FF3080F088809A4540F2858066
:100DD000A9F102096344A3EB0A03A4B2B3FBFEF03A
:100DE0000EFB103344EA034400FB08F8A04508D981
:100DF0001CEB040400F1FF336BD2A04569D9023823
:100E0000644440EA0940A4EB0804A0FB02894C4575
:100E1000C6464B4654D351D0002E69D0B1EB0E02DA
:100E200064EB030404FA05F522FA07F3FC401D43C2
:100E3000C6E90054002746E73746304643E71846E0
:100E400037E707461FE7C2F1200320FA03F7954072
:100E500001FA02F021FA03F34FEA154E3843010C70
:100E6000B3FBFEF71FFA85F80EFB173341EA034187
:100E700007FB08F38B4204FA02F407D9691807F15B
:100E8000FF3C28D28B4226D9023F2944CB1A81B29B
:100E9000B3FBFEF00EFB103341EA034100FB08F305
:100EA0008B4207D9691800F1FF3C10D28B420ED952
:100EB00002382944C91A40EA074714E74145ABD232
:100EC000B8EB020E69EB0C0201381346A4E760464A
:100ED000F0E7184695E76746D8E781467BE738464E
:100EE00045E7ACF1020C2B4410E702382C4421E713
:100EF0003746E8E6704700BF034613F8012B002A87
:100F0000FBD1181A0138704710B50C202DED028B5B
:100F100000F0EEF90B4C0C4908EE100A204600F0E8
:100F2000E4F8F8EEC87A17EE900AFFF73BFBBDEC49
:100F3000028B41EC100B20460221BDE8104000F06E
:100F4000CDB900BFA0100010D78D020008B5132046
:100F500000F066F8012100F015FA00210C2000F0E5
:100F600021FA4FF4E1310248BDE8084000F083BAAD
:100F7000A01000107047000013B5084C4FF0FF336D
:100F8000009328222721204600F094FB044A0549BB
:100F9000204602B0BDE8104011F06ABD1C0F0010E1
:100FA0000001001055160100084B70B5084D1A7865
:100FB0000C260023D9B28A4206D9013306FB03F47A
:100FC00064578442F6D10A46104670BDDD8D02009A
:100FD000F800001030B5084B084A1B780021CCB24D
:100FE000A34207D95578854201F1010102F10C02B3
:100FF000F5D12346184630BDDD8D020004010010F6
:10100000054B1B78834281BF044B0C2202FB00304E
:10101000407898BFFF207047DD8D0200040100106A
:1010200008B5FFF7C1FFBDE80840FFF7E9BF0000C2
:10103000054B1B78834281BF0C234343034AD056A0
:1010400098BF4FF0FF307047DD8D020004010010A3
:101050002DE9F84306460D46071D00F10709002457
:1010600017F8011B0A22284600F079F82E21804645
:10107000284600F03EF84F4540440444F0D10A228F
:10108000F179284600F06BF82044BDE8F8830000B1
:10109000024B034A1A6000225A6070478010001009
:1010A000E88D020000207047F8B505460E46174649
:1010B0000024BC4207D02B68315D1B682846984746
:1010C00008B10134F5E72046F8BD70B505460C4679
:1010D000084649B1FFF710FF2B6802462146284613
:1010E0005B68BDE87040184770BD08B5FFF7EDFFBD
:1010F00008BD03681B68184708B50249FFF7E5FFFC
:1011000008BD00BF83AB020070B58AB000238DF824
:101110002430012A98BF0A2209ACB1FBF2F502FB88
:101120001516F3B2092E94BF30333733DBB28A423F
:1011300004F8013D04D92146FFF7C7FF0AB070BD8E
:101140002946EAE710B42AB903685DF8044B1B6826
:10115000C9B21847D2B25DF8044BFFF7D5BFFFF70D
:10116000F1BF00002DE9F84F55EC104B0F1E06465D
:1011700010EE102A2B4610EE100A2946B8BF02279F
:10118000FFF702FD38B14C493046FFF79EFF82461B
:101190005046BDE8F88F25F000494FF0FF32474B2D
:1011A00020464946FFF7F0FC48B94FF0FF32434B69
:1011B00020464946FFF7CAFC08B94149E4E74FF029
:1011C0006042404B20462946FFF7D4FC08B13E4917
:1011D000DAE74FF060423D4B20462946FFF7ACFC72
:1011E0000028F4D10022002320462946FFF7A4FC62
:1011F000D0B12D213046FFF77CFF05F10043824638
:101200001D463349DFF8D0904FF0000B00204FF01F
:1012100000085FFA8BF3BB420BF1010B06DA424682
:101220004B46FFF741FBF4E78246EAE702460B46EE
:1012300020462946FFF758F80D460446FFF7BAFC4A
:101240008046FFF78DF902460B4620462946FFF7F8
:1012500049F80A2204460D4630464146FFF754FF3E
:10126000824427B11B493046FFF72FFF8244DFF845
:1012700068904FF0000817F1FF3789D34B4642467C
:1012800020462946FFF7E6F90D460446FFF792FC93
:101290000A22014683463046FFF736FF824458460D
:1012A000FFF75EF902460B4620462946FFF71AF87B
:1012B00004460D46DFE700BFEC8D0200FFFFEF7F25
:1012C000F08D0200FFFFEF41F48D0200FFFFEFC140
:1012D0000000E03F44D202000000244038B505463B
:1012E000FFF740FF04462846FFF706FF204438BDBD
:1012F00008B5FFF759FE054B1B78834203D0BDE8C4
:10130000084000F0F1BA002008BD00BFDD8D0200EA
:101310002DE9F0411A4E0C2202FB0062054694684A
:101320000F4664B9FFF784FE8046082011F0C0FD27
:101330000023C0E900334146044610F0DCFC0C23D6
:1013400003FB0565012FAC6010D037B1022F12D01E
:10135000204600F012FB202103E0204600F00DFBA8
:1013600008212046BDE8F04100F014BB2046BDE84E
:10137000F04100F0F5BA204600F0FFFA1021F0E746
:101380000401001010B50C46FFF724FE044B1B7837
:10139000834204D02146BDE81040FFF7B9BF10BD1D
:1013A000DD8D020010B50C46FFF7FEFD044B1B78E7
:1013B000834204D02146BDE81040FFF7A9BF10BD0D
:1013C000DD8D020000F006B810B5044600F074FC94
:1013D000204610BD014800F079BC00BF8810001005
:1013E00010B5054C204600F0E1FC2046034A0449B4
:1013F000BDE8104011F03CBB881000100001001047
:10140000C913010000207047036801221B690021F5
:101410001847036800221B69114618476FF0150032
:10142000704700290CBF6FF01800002070470120A2
:1014300070476FF0150070476FF01500704784B06B
:1014400001A880E80E0004B070476FF01C007047E0
:101450006FF01C0070476FF0150070476FF01500BB
:10146000704701207047012070470020704700201E
:10147000704701207047036840F213421B6A184707
:101480007047D0F86001704707B503688DF8071002
:101490005B6801220DF10701984703B05DF804FB7A
:1014A000D0F860312BB1D0F85C31184490F8580076
:1014B00070474FF0FF307047D0F860318BB1D0F8F3
:1014C0005C31034493F85820D0F85C310133DBB22F
:1014D000C0F85C31D0F86031013BC0F86031104693
:1014E00070474FF0FF30704702F00F03013B9BB293
:1014F0002DE9F043042B044610469CBF2C4AD75CD0
:1015000000F0F00388BF0027202B8BB00D4647D09A
:10151000302B0CBF4FF002084FF0010800F4706050
:10152000B0F5007F3FD0B0F5407F3ED0B0F5807F72
:101530000CBF0526082615F097FE1E4B029093F867
:101540002C006FF3041083F82C0003F5805304F192
:10155000100993F82C006FF3041083F82C00029804
:1015600015F086FE2946484600F05AFA43463A46A8
:101570003146484600F067FA03940F4B0493002469
:10158000059403AA07CA06AB83E807000B4A019437
:1015900000920ECB484600F08FFA0BB0BDE8F08306
:1015A0004FF00208BAE70626C5E70726C3E700BFE3
:1015B0002C8E020000C00140E51501003516010027
:1015C00070B50D46164600F11004204600F063FA8F
:1015D0000028FAD032462946204600F0A8FC20EA2E
:1015E000E07070BD37B5044600F11005284600F0E4
:1015F00041FAE8B101220DF10701284600F0BEFCD6
:10160000D4F86031B3F5807FF0D0D4F858319DF82C
:101610000720234483F85820D4F858310133DBB233
:10162000C4F85831D4F860310133C4F86031DDE7D3
:1016300003B030BD10B4D0E9013401686210E40792
:1016400001EB020048BF8A585DF8044B48BFD358ED
:101650001847000010B5054B0360054B044640F8E1
:10166000103F00F06FFA204610BD00BF3C8E020014
:101670004C910200A0F11000FFF7ECBFA0F1540064
:10168000FFF7E8BF10B50446FFF7E4FF20464FF42C
:10169000B27111F023FC204610BDA0F15400FFF7F9
:1016A000F1BFA0F11000FFF7EDBF00000048704748
:1016B000F410001038B500254FF47A73C0E90153D7
:1016C0000F4B044640F8103B4FF4165300F06EFCED
:1016D0000C4B03F10802226003F1440278332261CB
:1016E00063654FF48072294604F1580017F094F8AE
:1016F000C4F858512046C4F85C51C4F8605138BD54
:10170000008E0200348E020013B54FF0FF330093B9
:10171000312230210446FFF7CDFF204602B010BD34
:1017200010B5054C2046FFF7EFFF2046034A044959
:10173000BDE8104011F09CB9A0100010000100108D
:101740005516010008B5FFF73DFEFFF713FCFFF744
:10175000FDFBFFF7D9FBFCE710B5114C70B121463A
:10176000002013F0ABFE40B902460146206814F099
:1017700035F810B90B4B01221A7010BD094B1870C7
:10178000206813F071FF0028F7D10A2016F0F4F852
:101790000028F2D12068BDE8104013F07DBF00BFE3
:1017A000041200100812001007B50120FFF7D4FF43
:1017B000074B00930123ADF8043000238DF8063069
:1017C000044B6946186813F0CFFE03B05DF804FBC4
:1017D000010007000412001013B5104C4279206874
:1017E0008DF802200023ADF800308DF8033001237E
:1017F0008DF8043013F038FF014610B1012002B01B
:1018000010BD6A46206813F0E3FE0028F6D1206878
:1018100013F00EFF003018BF0120F0E70412001093
:1018200010B5294B1B7886B004460BB9FFF7BCFFF7
:10183000012303932379052B07D1244AA379116847
:10184000206863F3020115F017FD2046204CFFF7D6
:10185000C3FF02A90022206813F038FF0299206814
:1018600013F04EFF28B11B491B484FF4DE7210F0F5
:1018700039FE206813F0A0FF002202A9206813F0AF
:1018800025FF024620B140F2C11212491348EEE78B
:10189000029BDB07F0D504AB0093014603AB206845
:1018A00013F03EFF20B14FF4E2720A490C48DEE724
:1018B0000C4B04981B780E2B8BBF0E3BC3F10E0311
:1018C0009840D84006B010BD08120010A0D2020007
:1018D00004120010F48E0200758F0200C38F020004
:1018E0001A900200DC01001008B5FFF7A1FBC0B29E
:1018F000FF2808D0094A002352F83310814204D14E
:1019000012EBC30005D1002008BD01330F2BF3D12A
:10191000F9E7BDE80840FFF783BF00BFE001001012
:101920000368184710B5054B0360044600F068F9DA
:10193000204600F0BDFA204610BD00BF1091020005
:10194000C36810B52BB9044904484FF4FD7210F078
:10195000C9FDBDE8104018477F900200D5900200F5
:1019600007B5019010F0E6FD0198012113F0E4F9AC
:1019700003B05DF804EB10F0F3BD07B5019010F073
:10198000D9FD0198002113F0D7F903B05DF804EBFD
:1019900010F0E6BD07B5CDE9001010F0CBFDDDE994
:1019A000001013F003F903B05DF804EB10F0D8BD9C
:1019B0007047000013B504460C3094F9372094F9B1
:1019C0003610019013F098FB216B019813F04AFB3D
:1019D00003490198224602B0BDE8104013F0F0BB65
:1019E000A11B010038B50C4D05600C4D456000256C
:1019F000C0E90B5340F20113C0E90255C0E90E558E
:101A00000446C561838680F8361080F83720056467
:101A1000FFF7D0FF204638BDEC900200B519010059
:101A200070B50646044656F80C3B0D461B689847B1
:101A30003046294613F016FB2368256320465B6871
:101A4000BDE8704018477FB50546044655F80C6B55
:101A50000193CDE902213668B047DDE9013228461D
:101A6000039913F015FB23685B68204604B0BDE8BA
:101A70007040184738B50546044655F80C3B1B68BE
:101A80009847284613F044FC236805465B682046C7
:101A90009847284638BD38B50546044655F80C3BEE
:101AA0001B689847284613F05DFC236805465B6871
:101AB00020469847284638BD84B02DE9F04709AE46
:101AC00086E80E0003689DF834701B680546984749
:101AD00095F834307C1C03B18FB195F835300BB1DB
:101AE000012F0CD096E80F0005EB041484E80F00DA
:101AF0002B682846BDE8F0475B6804B0184710F033
:101B000019FD05EB04190C9AD9F80C3005F10C08F5
:101B100082B10BB910F01AFF96E80F0005EB041420
:101B200084E80F0001223946404613F051FB10F0C3
:101B300017FDDDE70BB110F00AFF0022C9F80C20F9
:101B4000F1E7000070B50B4B036086B00026CDE9CD
:101B5000006602AC94E80E000546FFF7ADFF0123D6
:101B6000CDE90063284694E80E00FFF7A5FF28465C
:101B700006B070BDEC90020010B50446FFF7E2FF1E
:101B80002046442111F0AAF9204610BD0C3013F074
:101B900071BB10B50C300C4613F096FB204610BDFF
:101BA000013100EB011008B5C3680BB1FFF7C8FEA7
:101BB00008BD70B5D0E90213D0E9082504465218D3
:101BC00045EB030300F064F9636B23B104F12800D3
:101BD000BDE87040184770BD38B50446154600F0A2
:101BE00041F9064B236000220023C4E908230023A7
:101BF000636384F83850204638BD00BF109102005E
:101C000013B5044601A810F093FB204600F04AF9F2
:101C1000636B23B194F838300BB110F098FE0023B9
:101C2000636301A810F08CFB02B010BD70B50446D0
:101C300015461E4600F036F9C4E90856A06910F0B2
:101C4000FCFA2A1846EB01032046BDE8704000F07C
:101C50001FB984B073B5054607AC01A884E80E002F
:101C600010F066FB6B6B23B995F838300BB110F0B0
:101C70006DFE94E80F0005F1280686E80F00DDE907
:101C80000C232846FFF7D2FF01A810F059FB02B041
:101C9000BDE8704004B0704710B5044610F048F835
:101CA000002201462046FFF797FF024B23602046A3
:101CB00010BD00BF04910200437D10B504461BB166
:101CC000037D0BB110F043FE204610BD13B5044652
:101CD00001A810F02DFB637D53B9237D0BB110F0EB
:101CE00035FE206910F0A9FAC4E9000101236375EB
:101CF00001A810F025FB02B010BD37B504460D4613
:101D000001A810F015FB00230022C4E900236B7D1D
:101D10004BB1286910F091FAD5E90032C01A61EB95
:101D20000201C4E9000101A810F00AFB204603B03B
:101D300030BD30B585B004460D4603A810F0F8FA62
:101D400029466846FFF7D9FFD5E90210009B019AA2
:101D50005B1840EB0202C4E9003203A810F0F0FA6D
:101D6000204605B030BD13B5044601A810F0E0FAD6
:101D7000206910F062FA00220023C4E90001C4E9DE
:101D8000022301A810F0DCFA02B010BDD0B5002388
:101D900000260027C0E90067C0E902670446016128
:101DA00002754375FFF7DFFF2046D0BD10B504462E
:101DB00010F06AFA012201462046FFF7E7FF2046AD
:101DC00010BD10B504460FF0B3FF002201462046B7
:101DD000FFF7DCFF204610BD30B5436B85B00446ED
:101DE000B3B100F128030FCB6D4685E80F00002347
:101DF000636394F838300BB110F0A9FD039B2BB945
:101E0000044905484FF4FD7210F06CFB28469847D2
:101E100005B030BD7F900200D590020010B5044699
:101E200010F032FA012201462046FFF7D5FE024BA0
:101E30002360204610BD00BF1C91020010B504466F
:101E40000FF076FF002201462046FFF7C5FE024B49
:101E50002360204610BD00BF2891020003681B6864
:101E60001847000010B50446074B236000220023EA
:101E7000C4E9022300230846A161C4E904330349ED
:101E800010F052F9204610BD409102005D1E010085
:101E900007B5009000F10801806910F084F903B0E3
:101EA0005DF804FB00F10801806910F0ABB9000097
:101EB00010B5034B03600446FFF7F4FF204610BD46
:101EC0004091020070B511F0010405468EB204D0B5
:101ED000FFF7D0FD041E18BF0124F30605D52846E0
:101EE000FFF7D9FD08B144F01004204670BDA0F101
:101EF0004400FFF7E7BF000010B5034B0360044642
:101F0000FFF720FE204610BD4C910200A0F14400D6
:101F1000F2E700BF10B50446FFF7EEFF2046482168
:101F200010F0DCFF204610BDA0F14400F2E72DE9DF
:101F3000F04106460D461746CAB110F0F9FA80F096
:101F4000010313F0FF0403D0336830461B68984741
:101F500005EB0708454505D015F8011B3046FFF78E
:101F600018FEF7E71CB1336830465B68984738467F
:101F7000BDE8F081A0F14400FFF7D9BF38B50446B1
:101F80000D4662B103681B6898472046FFF7FEFDC7
:101F90002870236820465B689847012038BD1046AA
:101FA000FCE7A0F14400FFF7E9BF000010B50446CC
:101FB000FFF718FD034B03F108023C332260636412
:101FC000204610BD44910200704703680BB10846DB
:101FD0001847704713B5044610F0ACFA237F1BB1C5
:101FE00010F0BEFA02B010BD0123237710F0B8FA4A
:101FF000A36804F10800002BF4D06369019401A9DF
:102000009847EFE738B50C4A01600023C0E9033375
:1020100004464360836183604261037749B9074D99
:102020002B6813B901F01CF82860236855F8233099
:102030006360204638BD00BFCB1F01003412001082
:1020400070B560B9104C26683EB9202010F030FF02
:1020500031460546FFF7D6FF2560206870BD0B4C62
:102060002378BFF35B8FDB0701D50948F6E72046ED
:1020700010F00AFD0028F8D001210548FFF7C2FF43
:10208000204610F023FDF0E7101200100C12001093
:1020900014120010704708B50846FFF7D1FFBDE8DD
:1020A0000840FFF797BF0000002A08B5C0E90012FA
:1020B00005DA074907484FF40E7210F013FA29B9F0
:1020C00022B10349044840F23922F6E708BD00BFB7
:1020D000C89102001A9202002592020000220260BA
:1020E000828070477047704710B50821044610F091
:1020F000F5FE204610BD000008B503480FF048FD6E
:10210000BDE8084000F026BA0126010038B51C469B
:102110001B78062B0846114604D16378202B04BF98
:1021200000232372224600F0B1F9054620460FF045
:1021300093FA284638BD00F0C9BA7047044A0260D5
:1021400042F228324260034A82600522C260704730
:10215000801200108C92020010B53821044610F055
:10216000BDFE204610BD012000F0CCB800F062B9E1
:1021700038B504460D46043500F0D4FA024B23600E
:10218000A561204638BD00BF6492020038B5164CE8
:102190002378BFF35B8FDA070ED4204610F074FC6F
:1021A00050B1124D124B2B60204610F08FFC114A9B
:1021B0001149284610F05CFC104C2378BFF35B8F6C
:1021C000DB070FD4204610F05FFC58B107490C48DC
:1021D000FFF7CEFF204610F079FC064A094908486F
:1021E00010F046FC064838BD3C1200107812001072
:1021F0004892020000010010E52001003812001092
:10220000401200103B21010073B515F02DF8114B61
:1022100001909B68BBB1104CD4F80C33190712D451
:10222000D4F80C331A06C3F3C0160CD40B4D01219D
:10223000286813F099FBD4F80C331B0603D52868E3
:10224000314613F091FB019802B0BDE8704015F0E3
:102250000FB800BF8453001000C000509C54001001
:10226000024B1B6803B11847704700BFB035001020
:1022700008B1FFF7F5BF704710B50C480C4C0122B0
:10228000002115F0FFFBD4F80C331B0709D4074BD2
:102290009B6853B1074BBDE81040187801210FF03F
:1022A00045BC052015F0E2FFEDE710BD845300109A
:1022B00000C00050A935001010B50D4B0D4C196031
:1022C0000D4B012118780FF031FCD4F80C331B06AC
:1022D00009D40A4B9B6853B1094BBDE810401868FC
:1022E000012113F041BB052015F0C0FFEDE710BD43
:1022F000B835001000C00050A935001084530010FC
:102300009C5400102DE9F041414A424CDFF82081F5
:1023100000231360404A88B0074613600B263D49EE
:10232000002013F03FFB014618B9206813F002FCAF
:1023300020B1FFF79DFF08B0BDE8F0812023042203
:10234000CDE90123039302230790CDE9050004930F
:102350002068012301A98DF81E3013F073FB0028BB
:10236000E7D11FB14FF47A7015F070FF206814F0B8
:1023700083FC0546F8B1454520684FF001010FD1B7
:1023800013F0D8FB0028D4D1206813F03BFB0028C1
:10239000CFD1013ECFD04FF47A7015F057FFBEE792
:1023A00013F0C8FB0028C4D1206813F02BFB0028D1
:1023B000BFD12846BDE70821206814F099FC40F2FF
:1023C0008131206814F070FA206840F2813114F0F5
:1023D0003FFA124BDB68DBB2202B09D94FF4C03136
:1023E000206814F061FA20684FF4C03114F030FA1C
:1023F0000B4B4FF480521A604FF402634FF4827219
:102400000849094815F00AFB084B00221A6092E7B8
:10241000B83500109C540010AC350010000002408C
:1024200000E100E0544B001084530010B43500105C
:102430000B000008104B4FF4805210B5C3F88020F9
:10244000BFF34F8FBFF36F8F0C4C0121206813F047
:1024500071FB38B90A4A93689B04FCD4206813F0D6
:10246000D1FA18B1BDE81040FFF702BF054A10606D
:10247000054A106010BD00BF00E100E09C54001050
:1024800000100240B8350010AC35001070B516468B
:102490002D4A0C46D2E90213994290B0054606D166
:1024A0004FF01060FFF7DCFE204610B070BDFF2C2F
:1024B00001D92648F6E753691268611C9950134404
:1024C000002203F8040F944239D8012200211E484B
:1024D00015F0ADFAFFF798FE012DE5D1727833784B
:1024E00003EB02239BB240F603429342DCD103A9E3
:1024F000284615F085F9BDF81030ADF80430BDF868
:1025000012308DF80630059B8DF807301A0A1B0C27
:102510008DF809300E4B8DF80820002101A813F822
:10252000012B02B10A5401310629F8D101AA4FF654
:10253000324002F083FD012002F0BCF9B4E7B15C47
:1025400003F8011F0132BEE78453001001000009A7
:1025500058020010054B1870054B02229A7118732F
:10256000044B032218739A71704700BFA9350010FD
:10257000A05400107453001037B5174D012128687E
:1025800014F084F904460146286814F08DF92146B8
:10259000286814F0EDF814F080010BD028680021B1
:1025A00013F0E2F90D4B1878012103B0BDE830407B
:1025B0000FF0BCBAE3050DD5094B9A6852B15869C2
:1025C0005B68084C0191C2180094C3582868043213
:1025D00014F062F803B030BD9C540010A93500100F
:1025E0008453001079220100034904484FF4026328
:1025F0004FF4827215F012BA544B0010845300103D
:1026000038B58B78022B03D1BDE8384002F02BBCE3
:10261000032B03D1BDE83840FFF7F6BD214C224D16
:1026200021682B6899420AD9204A1068C91A1844AF
:10263000FFF781FD1E4A002323602B6013701D4BA2
:10264000D3F80C331B062BD5194B1A7802F0FF0573
:1026500032B1194B01211878BDE838400FF066BA45
:1026600016481749006801221A702B46154A14F0C3
:102670003DF82368B3F5807F04D9BDE8384012489F
:10268000FFF7EEBD60B1FFF7F3FDFFF7D3FE28467D
:10269000FFF738FEFFF7A8FFBDE838400BF0D2B8CF
:1026A00038BD00BFB8350010AC3500106002001016
:1026B000A835001000C00050A93500109C5400102F
:1026C0009C530010B922010002000009F8B5084F20
:1026D00005460C465CB1FF2C264628BFFF2628463F
:1026E0003B68F1B2A41B9847A4B23544F2E7F8BDA9
:1026F000640200100020704770470220704702F00B
:10270000CFBB0000054BDB6F9A0605D5044B1B6859
:102710009B0601D502F007BA02F05FBAB054001070
:1027200068020010024A02600022C0E904217047DA
:102730000C93020010B50446406903689B689847F3
:10274000236820461B6ABDE810401847036810B58F
:1027500004465B6A984760690368BDE81040DB681F
:102760001847000007B5019100F04AFC0368DB69D7
:102770009847019906F010F920B1044904486622EF
:102780000FF0B0FE03B05DF804FB00BFA0920200A2
:10279000EE92020030B50B780E2B85B005460C4644
:1027A0001CD10979E37803EB012399B242F20F03BC
:1027B000994204F106025AD8B1F5005F10D840F6EC
:1027C0006343994200F0988030D840F60143994223
:1027D00000F08A8040F6034399427ED005B030BDB8
:1027E000A1F50053013B0E2BF8D801A252F823F0BB
:1027F000F12801000529010031290100DD27010030
:10280000FF280100DD270100DD270100DD27010091
:10281000DD270100DD270100DD270100DD270100A4
:10282000DD270100DD2701002329010041F201031A
:10283000994245D041F209039942CFD159481146F6
:102840006C460FF04FF800230093A3802B682146BD
:102850005B6928469847002851D094E8030002900D
:10286000ADF80C10284602A9FFF77CFFB6E742F24C
:10287000240399427ED00FD842F21803994200F007
:10288000878042F21C039942A8D110685168464BD8
:1028900003C302F0D2F9A1E742F22F0399425CD0C0
:1028A00006D842F22A03994298D1A2793F4B4FE0D1
:1028B00042F23B0399420BD842F2390399428DD937
:1028C0003A4BD3F89030002B88D01046984785E7D4
:1028D00042F24A039942F3D080E7354B3548002253
:1028E0001A7002F0EFFA79E7334802F017FA75E749
:1028F000324802F0FAFA71E702F0A9FA6EE702F044
:1029000078F96BE7E179A279284B02EB0122A3F871
:102910007220227A83F8772083F8762002F081F9FA
:102920005CE7224BA27983F8782002F06EF955E734
:10293000E379A27902EB03221C4B5106DA6706D534
:102940001F4A1268520602D502F047FB46E70022F2
:1029500083F88120FFF7D6FE40E7617A237AE27997
:10296000A07903EB012100EB022089B280B202F0D2
:10297000A3F833E70D4BD3F8902012B102F073FAAD
:102980002CE7A3F88220A3F8842002F026F925E79B
:10299000074A1378022B02D801331370F5E70FF0C2
:1029A0009FF81BE70C55001004550010B0540010A0
:1029B000BC350010209602003096020028960200D6
:1029C00068020010406910B404682469A4465DF8E8
:1029D000044B6047036910B504461BB104309847A7
:1029E0000023236110BD704770470079831E584251
:1029F0005841704700487047589502000368DB69EA
:102A00001847704703685B6B184703680BB10846AB
:102A10001847704770477047704770477047704756
:102A200070477047704770477047704770477047EE
:102A3000F0B50746406889B00D46E8B114200EF0A5
:102A4000AFFD044620B9104910484E220FF04AFD50
:102A500095E80F0084E80F006E4604AD86E80F008D
:102A600085E80F0000232361FB683BB9FC60D7E9D0
:102A70000101FFF710FB012009B0F0BD1A461B69E8
:102A8000002BFBD11461F2E7349302007A93020029
:102A9000036A0BB114301847704703690BB1043057
:102AA0001847704710B50421044610F017FA204665
:102AB00010BD10B50421044610F010FA204610BDD8
:102AC00000F0DEBF07B5019100F0DAFF019900F0D8
:102AD000E2FD002003B05DF804FB13B50C4600F0E6
:102AE000CFFF0146684600F0C9FD009B2360019BB3
:102AF0006360002002B010BD034600789B78272B4E
:102B000002D0282B03D07047002107F0B3BC07F098
:102B1000F1BC00007FB51C4C2378BFF35B8FDA0754
:102B200005460ED420460FF0AFFF50B1174E184B9C
:102B3000336020460FF0CAFF164A174930460FF09F
:102B400097FF164C2378BFF35B8FDB0718D4204622
:102B50000FF09AFFA0B105F095FD039006F034F850
:102B6000039A0A4B009005F10C010D4806F022FB78
:102B700020460FF0ABFF074A0A4909480FF078FFDB
:102B8000074804B070BD00BF083600104C38001074
:102B90009494020000010010E92901000C36001095
:102BA00050380010E986010038B50379022B04463D
:102BB0001ED1002303710F4B1868FFF7C7FD236870
:102BC00020465B6A984701F013F823682046DB6AC9
:102BD000984704F0E3FD23682046DB69984706F038
:102BE000EFFBA06928B105690EF0FCFCA561F8E7D0
:102BF000092038BD1036001038B5064B0360044676
:102C0000406828B10569142110F068F92846F8E7F2
:102C1000204638BD7494020010B50446FFF7ECFF5F
:102C200020460C2110F05AF9204610BD38B5064B4D
:102C300003600446406828B10569142110F04EF97C
:102C40002846F8E7204638BD6494020010B50446D3
:102C5000FFF7ECFF20460C2110F040F9204610BD94
:102C600038B5064B03600446406828B10569142155
:102C700010F034F92846F8E7204638BD8494020065
:102C800010B50446FFF7ECFF20460C2110F026F9A2
:102C9000204610BD38B5064B03600446406828B195
:102CA0000569142110F01AF92846F8E7204638BDC6
:102CB0000C95020010B504462830FFF7EBFF04F135
:102CC0001C00FFF7CDFF04F11000FFF7AFFF201D40
:102CD000FFF792FF204610BD10B50446FFF7DAFF5C
:102CE00020460C2110F0FAF8204610BD38B5064BEE
:102CF00003600446406828B10569142110F0EEF81D
:102D00002846F8E7204638BDAC94020010B50446CA
:102D1000006A10B103685B6898472046FFF7E6FF3A
:102D2000204610BD10B50446FFF7E0FF20460C21F9
:102D300010F0D4F8204610BD70B4D0E90134056815
:102D4000661005EB6400E40744BFAC59E35870BC5F
:102D5000184730B4D0E901320468551004EB620022
:102D6000D20748BF625930BC48BFD358184700004B
:102D700010B5054B03600446FEF742FF2046FFF7FF
:102D800097F8204610BD00BF1091020010B5054B0A
:102D900003600446FEF734FF2046FFF789F820461B
:102DA00010BD00BF1091020038B50A4B044640F830
:102DB000203BFEF781FF084BE360A06920B1056965
:102DC0000EF010FCA561F8E72046FFF763F92046F6
:102DD00038BD00BF1C9502000095020010B50446E6
:102DE000FFF7E2FF2046402110F078F8204610BDA2
:102DF00037B50D4604460192FFF7C8F9019B2A46F4
:102E0000214603B0BDE83040FFF7DCBD10B5FFF749
:102E1000BDF90368BDE81040DB68184707B50190AD
:102E2000FFF7B4F9036801991B6903B05DF804EB7F
:102E30001847000070B54E4B196888B029B94D4944
:102E40004D4840F285120FF04DFB0B684B4E9B68CE
:102E50004B4D04A89847049B059C06999DF81C00BF
:102E600033602C600EF030FB83B223B941494548F2
:102E700040F29312E7E7336882B213FA80F02B68CE
:102E800030609B1A94422B6006D900233E493F488C
:102E90000093A21A0FF038FD0EF0B6FC03F07CFD93
:102EA00003F08CFD03F0E6FB03F0C4FC03F014FD1B
:102EB00037480EF06DFE0BF08DFB36480EF068FEC5
:102EC000039009F02BF90BF06DF90AF0C3F90AF041
:102ED00043FB0AF02DFC0BF053FA0AF0A3FD0BF0B4
:102EE000B5FA0AF02FFF03980AF01AFD2A480EF0EF
:102EF0004FFE0BF0B1FE0BF03DFD0BF057FE0BF05B
:102F000095FD26480EF044FE03F062FE07F064FDD6
:102F100007F030FC224807F075FD08F0EFF804F0E8
:102F2000E1F807F01DFA1F480EF032FE0CF060FDCC
:102F30000EF0B6FA0EF0C0F80DF012FF0DF006FF1D
:102F400019480EF025FE194B1870462001F018FCA8
:102F500017480AF0B3FC164903200AF08FF9154808
:102F600003F07AFE144808B0BDE8704003F05ABE82
:102F7000103600108C930200D4930200EC35001040
:102F8000E8350010E8930200F8930200050118806C
:102F9000E9E5010039D9010069EC0100096C010083
:102FA0007335010055FA01006530010068390010E1
:102FB00001310100F92A01001D40010038B50D4A18
:102FC0000D4B036000230446C0E90323C0E9053329
:102FD0000371836020300D46FEF7F3FE00220023CC
:102FE000C4E90E23054B20461D60FFF723FF204652
:102FF00038BD00BF009502001C950200103600107D
:1030000010B50D4C2378BFF35B8FDB0711D420463E
:103010000FF03AFD68B1FFF7B9F801460748FFF72E
:10302000CDFF20460FF052FD054A064903480FF038
:103030001FFD024810BD00BFFC3500100037001016
:1030400000010010A92D010008B5FFF7D9FFBDE868
:1030500008400021FFF71FB808B5FFF7F5FF08BDCE
:10306000FFF7CEBF13B50C4671B305F0ADFD20469A
:1030700006F078FB40BBA278202A05D0672A25D02D
:10308000204606F037FF1FE0CDE90000FEF7D8FF2D
:10309000009002F0EBFAC30407D509F0B3FD0AF083
:1030A00097FF0AF019FA0AF00FFBFFF7A9FF036870
:1030B0005B6A984700F04CFCFFF7A2FF0223037104
:1030C0000D486946C368984702B010BDE378002BED
:1030D000D6D1228842F21F039A42D1D1A3796279D4
:1030E000217902EB0322054BB1FA81F1186892B203
:1030F0004909FFF76FFCE7E714360010103600109F
:1031000010B54388412B04460AD105F0BBFA00688C
:1031100070B16389E2882188BDE8104005F098BB52
:10312000FFF76EFF21460020BDE81040FFF79ABF71
:1031300010BD000008B5044B1868FFF7FBFABDE8A6
:1031400008400AF07FBB00BF10360010F7B50479C5
:10315000012C05460F46164619D0022C19D0D4B9B9
:1031600020300190FEF7FFFD0198FEF7AFFD96E8D5
:1031700007000A4BC5E9045783E80700F2682846B0
:10318000C3E90324FFF7D6FF204603B0F0BD0924AE
:10319000FAE70024F8E70B24F6E700BF1436001026
:1031A00070B504468CB0A06970B1D0E903352BB975
:1031B0003D493E484FF4FD720FF094F99847A069DD
:1031C0000EF010FAA561EEE704F12005294604A8E7
:1031D000FEF7AFFDD4E90E3204995B18059941EB77
:1031E0000202C4E90E322846FEF7BDFDD4E90E0105
:1031F0004FF47A720023FDF7FDFC05460E4670B1D0
:103200000EF028FB4FF47A73A5FB030103FB0611B4
:10321000D4E90E321B1A62EB0102C4E90E32244CCF
:103220000EF0CCFC2378BFF35B8FDB070ED4204677
:103230000FF02AFC50B11F48FEF700FE20460FF0A9
:1032400045FC1D4A1D491B480FF012FC07A80FF052
:103250006FF80EF0A9FCC8B10DF11F000EF016FBBF
:103260009DF81F30BBB10021CDE909114FF47A71EF
:10327000A0FB0101CDE90201114A124B0893009213
:1032800008AB0B920B480ECBFEF7E3FC07A80FF040
:1032900057F80CB070BD0FF05BF80B4B1868036863
:1032A0009B699847F2E700BF7F900200D59002002B
:1032B000F8350010C036001000010010712D01001B
:1032C00021190100593001001036001030B51C4D95
:1032D0002B78BFF35B8FDB078BB004460ED42846F8
:1032E0000FF0D2FB50B11748FEF798FD28460FF0BB
:1032F000EDFB154A154913480FF0BAFB2046FFF7BE
:103300004FFF0EF051FCC8B10DF117000EF0BEFAE0
:103310009DF8173093B10021CDE907114FF47A7170
:10332000A0FB0101CDE90201094A0A4B0693009274
:1033300006AB099203480ECBFEF78BFC0BB030BDF9
:10334000F035001028360010000100108D2D01000E
:103350002119010059300100FFF722BF10B51022DA
:103360000446002115F058FA204610BD70B50446F9
:103370002F480578BFF35B8F15F0010555D10FF08D
:1033800083FB002851D005F01FFC23680646DB694B
:1033900020469847274C284B284A6661C4E90035E7
:1033A0002346103043F8102FE360254BA061C4E999
:1033B000073504F12400FEF791FE04F12A00FEF720
:1033C0008DFE04F13000FFF7C9FF04F14000FFF764
:1033D000C5FF04F15000FFF7C1FF04F16000FEF7E4
:1033E0007DFE04F16600FFF7B9FF0F2384F8773004
:1033F0004FF4807384F87650A4F8783084F87A50CB
:1034000004F17C067019143504F0F8FE642DF9D12E
:10341000636907481C60012384F850300FF056FBA5
:10342000084A094903480FF023FB024870BD00BF5A
:103430000436001068370010AC940200BC940200FF
:1034400048380010000100100D2D010010B5094C86
:10345000094B0022C0E9082102600261C1E9014272
:10346000064C0860C1E90532054BCB61C1E9034058
:1034700010BD00BF9B2A0100912A0100392D0100D7
:10348000532D010070B517480378BFF35B8FDB073E
:1034900025D40FF0F9FA10B3134E3478BFF35B8FD5
:1034A00014F001040FD130460FF0EEFA58B10F4D71
:1034B0003046C5E90744EC600FF008FB0C4A0D49A3
:1034C00028460FF0D5FA09490B48FFF7BFFF05481A
:1034D0000FF0FCFA064A094907480FF0C9FA0648F6
:1034E00070BD00BF00360010C0350010C43500109C
:1034F00000010010E729010040370010032A0100F5
:1035000038B50E4C2378BFF35B8FDB07054612D42A
:1035100020460FF0B9FA70B12846FFF7B3FF014615
:10352000074804F057F920460FF0D0FA054A06493B
:1035300003480FF09DFA024838BD00BFF435001073
:103540006836001000010010B52C0100044B002269
:10355000C3E901221A611A60024ADA60704700BFAB
:10356000143600100B2A010003680BB108461847F7
:1035700070471FB50190FFF743FD03681B6B984729
:10358000002301998DF80C3003AA04F07FFE38B9AE
:103590009DF80C30042B18BF052005B05DF804FB26
:1035A0000520FAE738B5064B03600446406828B1A9
:1035B000056914210FF092FC2846F8E7204638BD33
:1035C0007095020010B50446FFF7ECFF20460C2171
:1035D0000FF084FC204610BD38B5064B036004464E
:1035E000406828B1056914210FF078FC2846F8E7F7
:1035F000204638BD8095020010B50446FFF7ECFF69
:1036000020460C210FF06AFC204610BD10B5044680
:103610002C30FFF7E1FF04F12000FFF7EDFA04F191
:103620001400FFF703FB04F10800FFF7BBFF20467F
:1036300010BD0346002210B503F8012B00F1110460
:1036400003F8012B9C42FBD1418210BDC06A044BA0
:10365000002818BF1846003818BF0120704700BF67
:10366000C91F0100006C044B002818BF1846003821
:1036700018BF0120704700BFC91F0100B1F83122F7
:103680000280B1F833224280B1F835228280B1F84D
:103690003722C28070470B88A0F831324B88A0F8DF
:1036A00033328B88A0F83532CB88A0F83732704798
:1036B000B0F8A0220346F3B40021C0F89811501CC2
:1036C000A3F8A8014748C3F8A0014748C3F8A401DC
:1036D00003F5D670C3F89C014448C3F8AC014448D4
:1036E000444DC3F8B00103F5DC70C3F8B401571DB5
:1036F000D01CA3F81D02A3F8257228883E4FA3F81A
:103700001F0203F50770B7F800C0C3F8C001C3F883
:10371000CC5103F5E47003F22225C3E97415C3F814
:10372000C401A3F827C23548354D364C364EC3F890
:10373000D85103F5097C0225C3F8E0C103F5F47CF8
:10374000C3E979C0C3F8B861C3F8BC41C3F8C80184
:10375000A3F82212C3F8DC41A3F82A1283F82452FA
:1037600003F5FC71C3F8EC71C3F8F861274EC3F898
:10377000F41103F22A21C3F8F0113188A3F82F12B3
:1037800003F50B71C3F8001203F50271C3E9811050
:103790001F49C3F8FC410868496883F82C526C46FD
:1037A00003C46C4603CC03F23127C3F8351203F58A
:1037B0000671C3E9847107321649C3F8310292B227
:1037C00003F5CC70A3F8A022A3F82D22C3F80C6255
:1037D000C3F8181283F81C52A3F8AA2102B0F0BC57
:1037E00007F016B9233D0100153C0100AC9702001B
:1037F000A4970200A29702009C9702000500000116
:10380000F80008019E97020002000001AA9702003A
:10381000188D020008000001B0F8A012394A4B1CB4
:1038200070B5A0F84C32384BC0F84432374BC0F872
:10383000483200F51473C0F84032354BC0F85032AE
:10384000344BC0F8543200F51773C0F85832324B7D
:10385000C0F85C32CB1C044600259BB2C0F83C5239
:10386000A0F8A032A0F891321088A4F893022B4857
:10387000C4F8600204F52470C4F8640204F51B70F7
:10388000C4F868022648C4F87C52C4E99B0204F5D7
:103890001F72C4E99D52234AC4F8802294F8402143
:1038A00002F1780004EB4000C4F8840204F52370B0
:1038B000C4F888021C48C4F88C02202084F89002C6
:1038C000062000FB02400226A0F87830A0F87A60BB
:1038D00080F87C5002F18C003144013224F8101041
:1038E00084F8402104F50F70A4F84E3207F090F8E8
:1038F00094F840010D4A04F17801BDE8704006F0EB
:10390000ABBD00BFAE970200233D0100153C010096
:10391000AC970200A8970200020000019E970200E7
:1039200005000001A097020002002011233E0100C3
:1039300090F8A23210B504464BB9012380F8A232A8
:10394000FFF7B6FE2046BDE81040FFF765BF10BD8B
:1039500010B50446034807F055F82046BDE810406E
:10396000FFF7E6BF7335010030B590F8944100F5DC
:10397000A2730022944206D953F8040B858B8D4222
:1039800002D00132F6E7002030BD00000022C0E97D
:1039900001220261014A0160C2607047693501007D
:1039A00038B5104B0025C0E902350F4B0560C0E962
:1039B00005350E4B8580C0E908350D4B0446C0E93E
:1039C0000B3529463830FFF7E1FF294604F14C005A
:1039D000FFF7DCFF294604F16000FFF7D7FF204620
:1039E00038BD00BF70950200649402007494020018
:1039F0008095020038B50446FFF7D2FF00226267C7
:103A000004F17E0304F1F60123F8062C23F8042CBC
:103A100003F8022C06338B42F6D104F1F00204F5D0
:103A20008C73002122F8021B9342FBD104F5A07293
:103A3000002123F8021B9A42FBD14FF0000384F8C7
:103A4000403104F5CA7204F5A273002543F8045B03
:103A50009A42FBD184F89451A422002104F5CC7041
:103A600014F0DAFE5C22002104F50F7014F0D4FE8D
:103A7000C4E9A655A4F8A05284F8A252204638BD45
:103A800010B50B4C2378BFF35B8FDB070ED42046B9
:103A90000EF0FAFF50B10748FFF7ACFF20460FF0D9
:103AA00015F8054A054903480EF0E2FF014810BD2C
:103AB0006C39001084390010000100100D3601002F
:103AC00010B503460C4607C983E80700E268DA60D0
:103AD00000221A61184610BD70B5044686B0236BEB
:103AE0006363606B38B1C36821469847636B002BF2
:103AF000F5D01B69F4E7206B28B1056914210FF09C
:103B0000EDF92846F8E72063A080E06828B1056950
:103B100014210FF0E3F92846F8E7E060A06928B126
:103B2000056914210FF0DAF92846F8E7656AA06103
:103B300035B12E69284614210FF0D0F93546F7E744
:103B40002946656201A8FFF721FF01A904F13800A9
:103B5000FFF7B6FF294601A8FFF718FF01A904F1F6
:103B60004C00FFF7ADFF294601A8FFF70FFF01A9A1
:103B700004F16000FFF7A4FF284606B070BD000006
:103B800038B50446FFF7A8FFD4F8985255B16B69D1
:103B9000288AC4F8983206F057FF182128460FF0FB
:103BA0009DF9F1E7D4F89C5235B12B68C4F89C32EA
:103BB000284614F00DFEF5E7B4F8A80106F044FF1E
:103BC000B4F84C0206F040FFD4F8D00114F000FE27
:103BD0002846064AA4F8A05284F8405184F894512B
:103BE00004F1780106F038FC284638BD233E010078
:103BF000FFF7C6BF38B504460D466368A360A068EA
:103C000038B1C36829469847A368002BF5D01B69D3
:103C1000F4E738BD2DE9F04F87B00E46BDF840A05F
:103C2000DDF844900746144651464A4630469846C9
:103C300006F026FF054688BB182C48D032D8122C37
:103C400047D0162C14BF00240424FFF719FF314677
:103C5000FFF78AFE8346002841D0FFF703FD0028C6
:103C60003DD000235846039305930197ADF80860B3
:103C7000ADF80A80ADF80CA0CDF81090FFF7F2FC7B
:103C800068B30023ADF8143001A9DBF84C300BF118
:103C900040009847BDF814300BB3DDB2284607B09A
:103CA000BDE8F08F522C16D0D22C16D1FFF7E8FECB
:103CB000436F53B1FFF7E4FE446F384607F046FA0E
:103CC00039460246204604F039F80324BDE70624AD
:103CD000BBE70124B9E70224B7E70446B5E701973B
:103CE000ADF808608DF80A40ADF80C80ADF80EA074
:103CF000CDF81090FFF7C4FE01A91430FFF77AFF4A
:103D0000CCE738B504460D466368A360A06838B1B7
:103D1000C36829469847A368002BF5D01B69F4E7D0
:103D200038BD2DE9F04387B00D461F460E9E8046F4
:103D3000FFF7A6FE2946FFF717FE044630B3FFF74C
:103D400085FC18B34FF000092046CDE90399CDF862
:103D50001490CDF80480ADF80850ADF80A70FFF764
:103D600075FC68B104F12C00A36BADF8149001A9A7
:103D70009847BDF8140018B1C0B207B0BDE8F08391
:103D8000049B7360B368BDF80C201A800024CDE951
:103D90000344B3680594ADF80850ADF80A701B8869
:103DA000ADF80C3073680493CDF80480FFF768FE1B
:103DB00001A92030FFF7A5FF2046DEE7C3681847BA
:103DC00038B504460D466368A360A06838B1C3687F
:103DD00029469847A368002BF5D01B69F4E738BD46
:103DE00008B5034608461146421E042A0AD8DFE8F1
:103DF00002F01209030A0E0003F138009B6B0BB1AD
:103E0000FFF7DCFF08BD03F14C00DB6CF7E703F1C3
:103E100060001B6EF3E7012103F10800FFF7D0FFFC
:103E2000F0E713B5C388044613F0030F14BF032152
:103E300004210191FFF724FEA2880199FFF7D0FF2A
:103E400002B010BD10B54388122B04460AD1FFF70B
:103E500017FE006870B10368E28921881B68BDE81D
:103E6000104018470F2B05D1FFF70AFE012108303B
:103E7000FFF7A6FF10BD000008B542F60211024888
:103E8000FFF7D7FB08BD00BF70390010D0E9032051
:103E9000B2FBF0F07047C06880087047836803EB9E
:103EA000810233F82130002063F30F00538882B081
:103EB00063F31F4002B07047037CC06890FBF3F0CF
:103EC0007047037CC06890FBF3F070477047704701
:103ED0007047704710B5142104460EF0FFFF2046CE
:103EE00010BD10B5102104460EF0F8FF204610BD9D
:103EF00010B5142104460EF0F1FF204610BD10B598
:103F0000142104460EF0EAFF204610BD70B58B6800
:103F10000446086900FB02320023A370A3821088C4
:103F200020804979012986B01CD150888DF8043051
:103F300010220DF10501013A01F8013BFBD1ADF86A
:103F4000160001ADA31C05AE2A4603CAB242186092
:103F50005960154603F10803F6D128681860204619
:103F600006B070BD10210DF10500013900F8013BCC
:103F7000FBD101238DF80430911C0DF105031232A1
:103F800051F8040B43F8040B9142F9D19DF812202B
:103F90009DF8113043EA0223ADF8163001ADA31CA1
:103FA00005AE2A4603CAB24218605960154603F1AD
:103FB0000803F6D1D1E7000070B50C4E3478BFF39A
:103FC0005B8F14F001040FD130460EF05DFD58B147
:103FD000074D3046C5E90744EC600EF077FD054A11
:103FE000054928460EF044FD014870BDC03500105B
:103FF000C435001000010010E729010010B5C37896
:10400000712B044608D1FFF7D7FFC36913B121888C
:1040100010309847012000E0002010BD70B54388A3
:10402000122B044610D1FEF7EBFFFFF72BFA0068C6
:1040300018B1E289218803F043FBFFF721FD2046F8
:10404000BDE87040FFF7FEBE83780A2B0CD1FEF767
:10405000D7FFFFF717FA00680028EED0E3786289EF
:10406000218805F0B1F9E8E7054E002556F8043B34
:104070002046984718B901350E2DF7D1DDE770BD00
:10408000E895020010B50B7C896802FB0311044619
:104090004A8808882080628004311A1F201DFEF79C
:1040A00003F8204610BD10B50B7C896802FB031194
:1040B000044631F8022B20F8042B9A1EFDF7F4FF7A
:1040C000204610BDC36803B118477047F0B5438858
:1040D0000D2B87B004461AD1FFF76EFF2289616865
:1040E00026886789054601A8FDF7DEFF1B238DF8AA
:1040F0000C30019B04932846029BADF80E7003AA76
:1041000031460593FFF7DEFF012007B0F0BD002028
:10411000FBE7F0B543880E2B87B004461AD1FFF7B2
:104120004BFF2289616826886789054601A8FDF74B
:10413000BBFF1D238DF80C30019B04932846029B86
:10414000ADF80E7003AA31460593FFF7BBFF0120BF
:1041500007B0F0BD0020FBE713B543880C2B0446E5
:104160000BD1FFF729FF192321888DF8043001AA0C
:10417000FFF7A8FF012002B010BD0020FBE72DE9EA
:10418000F04143880B2B86B0044620D1FFF714FF83
:10419000616822894F882688B4F80A800546043170
:1041A0006846FDF781FF17238DF80830009B0493C4
:1041B0002846019BADF80A8002AA3146ADF80C7082
:1041C0000593FFF77FFF012006B0BDE8F0810020D6
:1041D000FAE713B54388092B04460BD1FFF7ECFE31
:1041E000132321888DF8043001AAFFF76BFF01200B
:1041F00002B010BD0020FBE7F0B54388082B89B062
:1042000004461ED1FFF7D8FE6168228911F8017BB0
:1042100026880546013A01A8FDF746FF11238DF8CF
:104220001030094B0393019B05932846029B06938C
:1042300004AA31468DF81C70FFF744FF012009B035
:10424000F0BD0020FBE700BFD895020070B54388A1
:10425000072B86B0044617D1FFF7AEFE22896168AE
:104260002688054601A8FDF71FFF0F238DF80C30A7
:10427000019B04932846029B059303AA3146FFF74E
:1042800021FF012006B070BD0020FBE770B5438818
:10429000062B86B0044617D1FFF78EFE228961688F
:1042A0002688054601A8FDF7FFFE0D238DF80C308A
:1042B000019B04932846029B059303AA3146FFF70E
:1042C00001FF012006B070BD0020FBE770B54388F8
:1042D000052B86B0044617D1FFF76EFE2289616870
:1042E0002688054601A8FDF7DFFE0B238DF80C306C
:1042F000019B04932846029B059303AA3146FFF7CE
:10430000E1FE012006B070BD0020FBE7F0B5438858
:10431000042B89B004461ED1FFF74EFE6168228946
:1043200011F8017B26880546013A01A8FDF7BCFE7D
:1043300009238DF81030094B0393019B0593284600
:10434000029B069304AA31468DF81C70FFF7BAFE53
:10435000012009B0F0BD0020FBE700BFC0950200BE
:1043600070B54388032B86B0044619D1FFF724FEAD
:1043700022896168268805466846FDF795FE072371
:104380008DF80C30074B0293009B04932846019B49
:10439000059303AA3146FFF795FE012006B070BDD4
:1043A0000020FBE7A8950200F0B54388022B89B0F6
:1043B000044623D1FFF700FE6168228911F8016BE2
:1043C00027880546013A01A8FDF76EFE05238DF802
:1043D00010300B4B0393019B0593012E029B069318
:1043E00028460CBF0423122304AA39468DF8116015
:1043F0000793FFF767FE012009B0F0BD0020FBE73F
:104400009095020037B50546C07898B1FFF7D4FD06
:10441000AB786989EA78ADF802105B0001248DF869
:10442000042029888DF800406A468DF80130FFF796
:1044300049FE204603B030BD094B1A8A82420AD099
:104440009A8D824209D0B3F84820383382420CBF9B
:104450001846002070471846704703F11C0070474B
:10446000B05400100A4B198A4FF6FF72914207D0E0
:10447000998D914209D0B3F84810914204D1383354
:1044800000221882DA751A8370471C33F8E700BFE0
:10449000B0540010427E013208B542760DF07CFA2D
:1044A000034A92F8763013B1013B82F8763008BDAA
:1044B000B054001038B5044600282FD11C4C0323FB
:1044C0004FF6FF72218A914201D0A17D31BB013BA1
:1044D00013F0FF0304F11C04F4D1002038BD658AF9
:1044E000002DFAD0638A228A5B1B638263681A708C
:1044F000238A62681B0A43F01003537063689D703F
:1045000063682A0ADA7061682046FFF7C3FF638A8E
:1045100013B16068284460600120DFE7658A01F01C
:104520009FF88542DBD301F09BF80546D8E700BF32
:10453000B054001070B50E460446154601F090F8D0
:10454000B04217D22B18C4E90053361A01236682F1
:10455000A375A870000AE87029462046FFF79AFF65
:10456000074D95F8763023B12046FFF7A3FF0028CA
:10457000F7D170BD29462046BDE87040FFF78ABFDD
:10458000B054001073B51A4D50B195F876301844F8
:1045900095F87730C0B2984228BF184685F8760063
:1045A000144E95F876300BB902B070BD0020FFF7BD
:1045B00081FF0028F5D10DF1070130460DF065F8B7
:1045C00004460028F0D04378007800EB032080B246
:1045D000FFF732FF40B1E378A17801EB03212246D7
:1045E00089B2FFF7A7FFDCE720460DF035F8D8E7E2
:1045F000B05400101455001038B5124C238A834271
:1046000007D0A38D834219D0B4F84830834217D124
:104610003834206818B10DF01FF800232360A0681B
:104620000025A57510B10DF017F8A5604FF6FF73C2
:10463000607E2382BDE83840FFF7A4BF1C34E8E762
:1046400038BD00BFB05400102DE9F041437890F818
:104650000080C278867808EB032808F44051C8F33C
:104660000B080546404606EB0226FFF7E5FEB6B20C
:10467000044638B9002728460CF0EEFF3D46284690
:10468000BDE8F081B1F5005F3DD1806818B10CF054
:10469000E3FF0023A360032EECD96B792F79274A1F
:1046A00007EB0327B2F87020BFB2FB1C9342E1DA9C
:1046B000B342E4DB07F10800002180B20CF0C8FF30
:1046C000A0600028D6D0431CE36080F80080E36837
:1046D0004FEA18285A1CE26083F80080E368043728
:1046E0005A1CE2601F70E3685A1CE2603A121A70AA
:1046F000E0683246291D14F081F8E3683344BE1B9C
:10470000E360A682B6E7B1F5805FB3D18368002B82
:10471000B0D0838AB342ADD33246C068291D14F0AD
:104720006DF8E368A28A3344961BB6B2E360A682B2
:10473000002E9FD1A768A6609DE700BFB05400106F
:104740000A4B4FF6FF7119829985A3F848101B2177
:10475000A3F8701040F205110022A3F87410C3E909
:104760001922C3F8902000F0F4BE00BFB05400102E
:10477000024B01225A760DF0AFB900BFE458001089
:10478000014BA3F870007047B05400102DE9F041C0
:104790004378067806EB0326B6B280463046FFF72C
:1047A0004BFE054680B398F8033098F802401A484B
:1047B0001A4F04EB03240CF0E5FFA4B24246F0B11B
:1047C00097F87630DBB121462846FFF7B3FE00F0BC
:1047D00047FF013C94FBF0F32C7E01332344DBB212
:1047E0002B7697F874209A4213D8EB7D8BB90C4B3B
:1047F0000121E97530465B69BDE8F041184706487C
:1048000000210CF02CFFE2E74046BDE8F0410CF03F
:1048100023BFBDE8F08100BF14550010B054001054
:10482000E458001038B50446C81C80B20D460CF0A0
:1048300007FF18B10470240A4470857038BD000069
:1048400037B5024618B1104800210CF008FF0F4D93
:10485000AB7EB3B10DF1070105F110000CF015FFAF
:10486000044670B1AB7E013BAB76427803780221FF
:1048700003EB022328462B830CF0D6FF20460DF0D5
:1048800095F803B030BD00BF5455001044550010DA
:10489000054B0022C3E9042201229A769A71034A49
:1048A000127E1A73704700BF44550010E458001080
:1048B0007047000010B5054C20460CF0BEFF0123E8
:1048C000A3760020BDE81040FFF7BABF44550010A2
:1048D00038B504460D4640F206400321FFF7A2FF1B
:1048E00038B1C470240A04714571BDE83840FFF73F
:1048F000A7BF38BD38B505460C4642F213000E215D
:10490000FFF790FF20B3C5702D0A05712288427110
:104910002288120A82716288C2716288120A027247
:10492000A2884272A288120A8272E288C272E28867
:10493000120A0273228942732289120A82736289DF
:10494000C2736289120A0274BDE83840FFF778BF6B
:1049500038BD2DE9F84F07460E4642F20D001921E9
:10496000DDF828B09DF82C900C9D92469846FFF7F4
:1049700059FF044690B3C77046713F0A360A077163
:10498000867180F807A080F80880594609300CF03D
:10499000A9FF84F80F902B8823742B881B0A63745B
:1049A0006B88A3746B881B0AE374AB882375AB8890
:1049B0001B0A6375EB88A375EB881B0AE3752B89CB
:1049C00023762B891B0A63766B89A3766B891B0A76
:1049D000E3762046BDE8F84FFFF732BFBDE8F88F19
:1049E00008B5002142F20E00FFF71CFF18B1BDE828
:1049F0000840FFF725BF08BD2DE9F84F0646884659
:104A000042F220000E21BDF828B0BDF82CA0BDF860
:104A1000309017461D46FFF705FF08B3C67080F8B3
:104A20000580360A4FEA1828C77145723F0A2D0AD9
:104A30004FEA1B214FEA1A224FEA1923067180F828
:104A400006800772857280F80BB0017380F80DA0A4
:104A5000827380F80F900374BDE8F84FFFF7F0BE43
:104A6000BDE8F88F38B504460D4642F22100032117
:104A7000FFF7D8FE38B1C470240A04714571BDE84F
:104A80003840FFF7DDBE38BD70B506460D4642F230
:104A9000220006211446FFF7C5FE60B1C6704571BD
:104AA000360A2D0AC471240A067185710472BDE8A4
:104AB0007040FFF7C5BE70BD38B505460C4642F2E2
:104AC00024000421FFF7AEFE48B1C57044712D0AE1
:104AD000240A05718471BDE83840FFF7B1BE38BDC6
:104AE00038B505460C4642F226004021FFF79AFEF3
:104AF000C0B12B46C21C05F1200153F8045B42F8FB
:104B0000045B8B42F9D1214600F1230304F120021A
:104B100051F8044B43F8044B9142F9D1BDE83840B9
:104B2000FFF78EBE38BD08B5002142F22F00FFF717
:104B300079FE18B1BDE80840FFF782BE08BD38B560
:104B400005460C4642F217002021FFF76BFEC0B16C
:104B50002B46C21C05F1100153F8045B42F8045BBC
:104B60008B42F9D1214600F1130304F1100251F8F0
:104B7000044B43F8044B9142F9D1BDE83840FFF7AC
:104B80005FBE38BD10B50221044642F21B00FFF79C
:104B900049FE30B1C470240A0471BDE81040FFF72B
:104BA0004FBE10BD38B505460C4642F21A00122120
:104BB000FFF738FE80B1C5702D0A05712146431DEF
:104BC00004F1100251F8044B43F8044B9142F9D11F
:104BD000BDE83840FFF734BE38BD08B5002142F2C9
:104BE0001800FFF71FFE18B1BDE80840FFF728BE08
:104BF00008BD08B5002142F20200FFF713FE18B10C
:104C0000BDE80840FFF71CBE08BD08B5002142F210
:104C10000300FFF707FE18B1BDE80840FFF710BE1C
:104C200008BD08B5002142F21C00FFF7FBFD18B1DA
:104C3000BDE80840FFF704BE08BD08B5002142F2F8
:104C40000F00FFF7EFFD18B1BDE80840FFF7F8BD12
:104C500008BD10B50121044642F20A00FFF7E2FD4B
:104C600020B1C470BDE81040FFF7EABD10BD70B5BB
:104C700005460E4642F208002021FFF7D3FD044608
:104C800088B1031DC5702A463146184613F0B6FD9B
:104C9000C5F11F022844002113F0BEFD2046BDE8E7
:104CA0007040FFF7CDBD70BD2DE9F74F06460D46AC
:104CB00099460F219DF83030DDF834B09DF83880EA
:104CC0009DF83C70019342F206009246FFF7AAFD60
:104CD000044600B3C6704571019B80F807A0360AF0
:104CE0002D0A0671857180F808900A306372BBF155
:104CF000000F0DD059460CF0F5FD04F1100080F8BE
:104D000000804770204603B0BDE8F04FFFF798BD24
:104D10000CF0F5FDF3E703B0BDE8F08F10B5082106
:104D2000044642F20100FFF77DFD48B12268C0F859
:104D300003206268C0F80720BDE81040FFF780BD7F
:104D400010BD38B50621054642F20500FFF76AFDA1
:104D5000044640B1294603300CF0C4FD2046BDE8AE
:104D60003840FFF76DBD38BD38B505460C4642F2F8
:104D70000C000221FFF756FD28B1C5700471BDE893
:104D80003840FFF75DBD38BD2DE9F84380460E463B
:104D900042F20B0007219DF8209015461F46FFF7B1
:104DA00041FD70B106718571360A2D0A80F80380C5
:104DB0004671C571077280F80990BDE8F843FFF7A6
:104DC0003FBDBDE8F88370B505460E4642F20900C6
:104DD0002021FFF727FD044688B1031DC5702A4630
:104DE0003146184613F00AFDC5F11F022844002180
:104DF00013F012FD2046BDE87040FFF721BD70BDE5
:104E0000F8B506460F4642F219001C2115461C460D
:104E1000FFF708FDD0B1C670360A06713B68C0F8CE
:104E200005307B6845732D0AC0F809308573234629
:104E300000F10F0204F1100153F8044B42F8044B47
:104E40008B42F9D1BDE8F840FFF7FABCF8BD08B5D0
:104E5000002141F20900FFF7E5FC18B1BDE8084068
:104E6000FFF7EEBC08BD08B5002141F20100FFF7D5
:104E7000D9FC18B1BDE80840FFF7E2BC08BD10B589
:104E80000221044641F20540FFF7CCFC30B1C4706A
:104E9000240A0471BDE81040FFF7D2BC10BD000029
:104EA00008B5074B0122002140F603409A76FFF730
:104EB000B9FC18B1BDE80840FFF7C2BC08BD00BF8F
:104EC0004455001010B50821044640F60140FFF794
:104ED000A9FC48B12268C0F803206268C0F8072026
:104EE000BDE81040FFF7ACBC10BD10B5082104466A
:104EF00040F66340FFF796FC48B12268C0F80320F3
:104F00006268C0F80720BDE81040FFF799BC10BDEB
:104F100038B505460C4640F67C400421FFF782FC7C
:104F200048B1C57044712D0A240A05718471BDE829
:104F30003840FFF785BC38BD2DE9F04180460F466B
:104F400042F22700272115461E46FFF76BFC044658
:104F500000B380F80380394604300CF0C3FC2A46C5
:104F600004F10A0305F1100152F8040B43F8040B95
:104F70008A42F9D1334604F11A0206F1100153F8BE
:104F8000040B42F8040B8B42F9D12046BDE8F041F6
:104F9000FFF756BCBDE8F08170B506460D4642F2FB
:104FA00028000721FFF73EFC044648B1C670294699
:104FB00004300CF097FC2046BDE87040FFF740BC81
:104FC00070BD08B5002142F22900FFF72BFC18B193
:104FD000BDE80840FFF734BC08BD08B5002142F227
:104FE0002A00FFF71FFC18B1BDE80840FFF728BCF6
:104FF00008BD10B50121044642F22D00FFF712FC56
:1050000020B1C470BDE81040FFF71ABC10BDF8B560
:1050100007460E4642F24E0008211546FFF702FCF5
:10502000044650B1C770314604300CF05BFCA572E9
:105030002046BDE8F840FFF703BCF8BD70B50D464B
:105040001646FFF7EFFB044648B12A4631460330C7
:1050500013F0D4FB2046BDE87040FFF7F1BB70BDF4
:1050600070B506460D4642F235000721FFF7DAFB20
:10507000044648B1C670294604300CF033FC204683
:10508000BDE87040FFF7DCBB70BD70B506460D464D
:1050900042F236001921FFF7C5FB0446002830D044
:1050A000C6702B8803712B881B0A43716B68837150
:1050B0006B681B0AC371EB880372AB684372AB6801
:1050C0001B0A83726B89C3722B7B03736B7B4373E5
:1050D000AB7B837329690F300CF004FC2B7D637567
:1050E0006B7DA375AB7DE375EB7D23762B7E6376BD
:1050F0006B7EA376AB7EE3762046BDE87040FFF77B
:105100009FBB70BDFB2B2DE9F84328BFFB238046D6
:105110000F4642F23700191DDDF8209016461D4655
:10512000FFF780FB044670B180F803800771467179
:1051300085712A464946073013F060FB2046BDE8DA
:10514000F843FFF77DBBBDE8F883FB2B2DE9F8435F
:1051500028BFFB2380460F4642F23800191DDDF8B8
:10516000209016461D46FFF75DFB044670B180F89F
:1051700003800771467185712A464946073013F04E
:105180003DFB2046BDE8F843FFF75ABBBDE8F88376
:1051900070B50D4689000646023142F239001446C8
:1051A000FFF740FBE0B10571C6702246034600EBF5
:1051B0008505AB4202F1060203D1BDE87040FFF75E
:1051C0003FBB12F8061C597132F8041C997132F871
:1051D000041C090AD97112F8021C19720433E8E799
:1051E00070BD08B5002142F23A00FFF71BFB18B171
:1051F000BDE80840FFF724BB08BD08B5002142F216
:105200003B00FFF70FFB18B1BDE80840FFF718BBE4
:1052100008BD10B50121044642F23C00FFF702FB35
:1052200020B1C470BDE81040FFF70ABB10BD08B53F
:10523000002142F23D00FFF7F5FA18B1BDE8084041
:10524000FFF7FEBA08BD2DE9F04180460F4642F255
:105250003E00072116461D46FFF7E4FA70B10771BC
:1052600086713F0A360A05722D0A80F8038047715D
:10527000C6714572BDE8F041FFF7E2BABDE8F081C2
:10528000FC2A28BFFC222DE9F04180460F4642F25D
:105290003F00D11C1E461546FFF7C4FA044668B10C
:1052A00080F80380077145712A463146063013F0B5
:1052B000A5FA2046BDE8F041FFF7C2BABDE8F0818B
:1052C00038B505460C464FF401500221FFF7AAFA03
:1052D00028B1C5700471BDE83840FFF7B1BA38BDD8
:1052E0002DE9F0411C46002380460F4616461D4618
:1052F00046FA03F2D20744BF0135EDB2072B03D0C3
:10530000042D03F10103F3D105EB8501033142F2D2
:105310004100FFF787FA18B380F8038007714671E0
:10532000234602460021CCB2A54203F1060303D86E
:10533000BDE8F041FFF784BA13F8024C947133F8DA
:10534000064CD47133F8064C240A147233F8044C1A
:10535000547233F8044C240A947201310532E2E7A6
:10536000BDE8F0812DE9F04180460F4642F242004F
:10537000062116461D46FFF755FA60B14671C57104
:10538000360A2D0A80F80380077186710572BDE820
:10539000F041FFF755BABDE8F0812DE9F041002357
:1053A0001746027A054688461E4642FA03F1C907A7
:1053B00044BF0136F6B2072B03D0042E03F10103DC
:1053C000F3D131010A3142F24300FFF72BFA0446D0
:1053D000002868D02B78C3706B780371AB78437169
:1053E000696806300CF07EFA2B7A2373414604F18B
:1053F0000D033A460020C5B2AE4203F1100301F19D
:10540000040102F10C0204D82046BDE8F041FFF788
:1054100017BA31F8045C03F8105C31F8045C2D0A0B
:1054200003F80F5C31F8025C03F80E5C31F8025CA3
:105430002D0A03F80D5C32F80C5C03F80C5C32F8B2
:105440000C5C2D0A03F80B5C32F80A5C03F80A5C6A
:1054500032F80A5C2D0A03F8095C32F8085C03F89C
:10546000085C32F8085C2D0A03F8075C32F8065C29
:1054700003F8065C32F8065C2D0A03F8055C32F886
:10548000045C03F8045C32F8045C2D0A03F8035C46
:1054900032F8025C03F8025C32F8025C2D0A03F871
:1054A000015C0130A7E7BDE8F0812DE9F84F8246A5
:1054B000894642F244000E21BDF82860BDF82C5008
:1054C0009DF8308093461F46FFF7ACF90446B0B113
:1054D00080F803A080F8049080F805B039460630C3
:1054E0000CF000FA2673A573360A2D0A6673E5736D
:1054F00084F810802046BDE8F84FFFF7A1B9BDE859
:10550000F88F08B5002142F24500FFF78BF918B17A
:10551000BDE80840FFF794B908BD10B50221044664
:1055200042F24600FFF77EF930B1C470240A0471DC
:10553000BDE81040FFF784B910BD08B5002142F264
:105540004A00FFF76FF918B1BDE80840FFF778B9D6
:1055500008BDFFF79DB900002DE9F84F04464FF054
:10556000000A14F8059B1B4EDFF86C80574609F1C2
:10557000FF395FFA89F9B9F1FF0F04D15046BDE850
:10558000F84FFEF7FFBF14F8033C14F8045C14F85E
:1055900002BC05EB0325ADB22846FEF74DFFB0B1C6
:1055A000427E5B46D21A4276027ED21AC37DD2B2C6
:1055B000DA4402765FFA8AFA4BB196F87530934274
:1055C00005D3C775D8F81420002128469047043425
:1055D000CDE700BFB0540010E458001010B5064CE1
:1055E0000A46014620460CF03AF8207E0121BDE82B
:1055F00010400CF09BBA00BFE458001037B539B129
:105600008B78012B02D10846FFF752F903B030BD69
:10561000C307FBD50F4D0F480DF107010CF035F80E
:1056200004460028F2D09DF80730042B0AD100F080
:105630000BFD6B7E13B120460CF050FA20460CF0A7
:105640000BF8E8E7FFF700F80028E4D02B6998474B
:10565000E1E700BFE4580010004870470C55001007
:10566000014BB3F872007047B0540010014BD86F73
:10567000704700BFB0540010014BB3F87000704782
:10568000B054001010B50A7802718C784B7803EB97
:1056900004239BB2C380C97801720380C27010BD1D
:1056A00030B50C7804718A784B7803EB02239BB2F7
:1056B000C3800D79CA7802EB052202818D794A797F
:1056C00002EB052242810D7ACA79038002EB0522A2
:1056D0008281C47030BD0B780371C370704710B500
:1056E0000A7802718C784B7803EB04239BB2C38059
:1056F000C97801720380C27010BD0B7803714A78BB
:105700004271C97881710280C370704730B50C78DE
:1057100004718A784B7803EB02239BB2C380CA786A
:1057200002724D790A7902EB05224281CD798A799C
:10573000038002EB05228281C47030BD0A780271B9
:1057400010B54B788C78C27003EB04239BB2C380F6
:10575000038010BD0A78027110B54B788C78C27046
:1057600003EB04239BB2C380038010BD0A7802714F
:1057700010B54B788C78C27003EB04239BB2C380C6
:10578000038010BD10B50A7802718C784B7803EB5A
:1057900004239BB2C380C97801720380C27010BD1C
:1057A0004A780B7803EB02238380704711F8012CB1
:1057B00011F8023C03EB022383800B78C3704B7813
:1057C000837170470B78037170470B780371C37056
:1057D00070470B780371C37070470B780371C37007
:1057E00070470B780371C37070470A78027110B567
:1057F0004B788C78C27003EB04239BB2C380038088
:1058000010BD0A78027110B54B788C78C27003EB2A
:1058100004239BB2C380038010BD0A7802714B78C9
:1058200010B58C7803EB0423C3800C79CB78C2705D
:1058300003EB0423038110BD0B780371C370704721
:105840000A78027110B54B788C78C27003EB042390
:105850009BB2C380038010BD0A7802714B7810B5EB
:105860008C7803EB0423C3800C79CB7803EB0423FF
:1058700003818C794B7903EB042343810C7ACB7938
:10588000C27003EB0423838110BD4A780B7803EBCD
:1058900002239BB283808A7810B5CC7802EB042275
:1058A000C2804C790A7902EB04220281CC798A7990
:1058B00002EB042242814C7A0A7A038002EB042232
:1058C000828110BD4A780B7803EB02239BB2838060
:1058D0008A7810B5CC7802EB0422C2804C790A7920
:1058E00002EB04220281CC798A7902EB0422428104
:1058F0004C7A0A7A038002EB0422828110BD0A7876
:10590000027110B54B788C78C27003EB04239BB204
:10591000C380038010BD4A780B7803EB02239BB24F
:1059200083800380704710B50A7802718C784B78B9
:1059300003EB04239BB2C380CC78047209794172D3
:10594000C270038010BD0B780371C370704710B52F
:105950000A7802718C784B7803EB04239BB2C380E6
:10596000CC78047209794172C270038010BD70470F
:1059700030B50C7804714A784271CD788B7803EB9E
:105980000523C3800B790372C470028030BD0B788D
:10599000C37070474A780B7803EB02239BB2838075
:1059A000038070474A780B7803EB02239BB2838015
:1059B0008A788271038070470A78027110B54B783B
:1059C0008C78C27003EB04239BB2C380038010BDAC
:1059D0000A78027110B54B788C78C27003EB0423FF
:1059E0009BB2C380038010BD0A78027110B54B785A
:1059F0008C78C27003EB04239BB2C380038010BD7C
:105A00000A78027110B54B788C78C27003EB0423CE
:105A10009BB2C380038010BD0A78027110B54B7829
:105A20008C78C27003EB04239BB2C380038010BD4B
:105A30000A78027110B54B788C78C27003EB04239E
:105A40009BB2C380038010BD0A78027110B54B78F9
:105A50008C78C27003EB04239BB2C380038010BD1B
:105A60000B7803714A7842718A788271CA78C27160
:105A70000A790272C370704730B50B46441D13F8A3
:105A8000012B0271213153F8045B44F8045B8B4213
:105A9000F9D1C27030BD30B50B46441D13F8012B4F
:105AA0000271413153F8045B44F8045B8B42F9D135
:105AB000C27030BD0A78027151F8013FC0F805305C
:105AC0004B68C0F80930C270704730B50B46441DB2
:105AD00013F8012B0271113153F8045B44F8045B95
